:1000000005C1000034C100000C94EA1130C10000A9
:100010002EC100002CC100002AC1000028C1000030
:1000200026C1000024C1000022C1000020C1000040
:100030000C9413121CC100001AC1000018C100006A
:1000400016C1000014C1000012C1000010C1000060
:100050000EC100000CC100000AC1000008C1000070
:1000600006C1000004C1000002C1000000C1000080
:10007000FEC00000FCC00000FAC00000F8C0000094
:10008000F6C00000F4C00000F2C00000F0C00000A4
:10009000EEC00000ECC00000EAC00000E8C00000B4
:1000A000E6C00000E4C00000E2C00000E0C00000C4
:1000B000DEC00000DCC00000DAC000000C94C111FA
:1000C000D6C00000D4C00000D2C00000D0C00000E4
:1000D000CEC00000CCC00000CAC00000C8C00000F4
:1000E000C6C00000C4C00000C2C00000C0C0000004
:1000F000BEC00000BCC00000BAC00000B8C0000014
:10010000B6C00000B4C00000B2C00000B0C0000023
:10011000AEC00000ACC00000AAC00000A8C0000033
:10012000A6C00000A4C00000A2C00000A0C0000043
:100130009EC000009CC000009AC0000098C0000053
:1001400096C0000094C0000092C0000090C0000063
:100150008EC000008CC000008AC0000088C0000073
:1001600086C0000084C0000082C0000080C0000083
:100170007EC000007CC000007AC0000078C0000093
:1001800076C0000074C0000072C0000070C00000A3
:100190006EC000006CC000006AC0000068C00000B3
:1001A00066C0000064C0000062C0000060C00000C3
:1001B0005EC000005CC000005AC0000058C00000D3
:1001C00056C0000054C0000052C0000050C00000E3
:1001D0004EC000004CC000004AC0000048C00000F3
:1001E00046C0000044C0000042C0000040C0000003
:1001F0003EC000000C94BF1F0C947920D01AD31A73
:10020000D61AD91ADC1ADF1AE21A3C1211241FBEC0
:10021000CFEFCDBFDFE3DEBF00E00CBF10E2A0E018
:10022000B0E2E0ECF3E400E00BBF02C007900D92F7
:10023000AA39B107D9F724E2AAE9B0E201C01D92B8
:10024000A331B207E1F711E0C6E0D1E000E006C05B
:1002500021970109802FFE010E94B421C530D107EA
:1002600080E00807A9F70E9453110C94DE21C8CE44
:10027000FC01892BF9F0613011F4408B08C0623029
:1002800011F4418B08C0643011F4428B08C068300F
:1002900011F4438B08C0603111F4448B08C0603204
:1002A00011F4458B0895603411F4468B089560383D
:1002B00009F4478B08951F93CF93DF93009759F06C
:1002C000162FEC016A8348E1D3DF6A85162B1A8763
:1002D000898581608987DF91CF911F91089500976B
:1002E00041F0FC016183442311F065830895FC0112
:1002F00066830895CF93DF93EC019A01AB01888167
:100300009981AA81BB8182179307A407B50709F4D5
:100310000DC2288339834A835B832115310541054A
:10032000510551F418868FEF9FEFA0E0B0E08C8369
:100330009D83AE83BF83EEC189859A85009709F4BA
:1003400048C1803C910509F49EC0811564E0960780
:1003500009F49EC0803861E0960709F49EC08115BB
:1003600061E0960709F49EC0803863E0960709F4BF
:100370009EC0803963E0960709F49EC0811562E053
:10038000960709F49EC0803462E0960709F49EC087
:10039000803263E0960709F49EC0811568E09607F5
:1003A00009F49EC0811569E0960709F49EC0811585
:1003B0006AE0960709F49EC081156BE0960709F480
:1003C0009EC0803468E0960709F49EC0803469E0DE
:1003D000960709F49EC080346AE0960709F49EC02F
:1003E000803968E0960709F49EC0803969E0960775
:1003F00009F49EC080396AE0960709F49EC08039EE
:100400006BE0960709F49EC0803C68E0960709F40B
:100410009EC0803C69E0960709F49EC0803C6AE07B
:10042000960709F49EC0803A68E0960709F49EC0DA
:10043000803A69E0960709F49EC0803A6AE0960720
:1004400009F49EC0803A6BE0960709F49EC0803B99
:1004500068E0960709F49EC0803B69E0960709F4BE
:100460009EC0803B6AE0960709F49EC0803864E035
:10047000960709F49EC0803A944009F49FC060E05A
:1004800070E0CB019FC060E076E38EE691E09AC019
:1004900060E076E38EE691E095C060E076E38EE67C
:1004A00091E090C060E076E38EE691E08BC060E082
:1004B00076E38EE691E086C060E076E38EE691E03A
:1004C00081C060E076E38EE691E07CC060E076E398
:1004D0008EE691E077C060E076E38EE691E072C050
:1004E00060E076E38EE691E06DC060E076E38EE654
:1004F00091E068C060E076E38EE691E063C060E082
:1005000076E38EE691E05EC060E076E38EE691E011
:1005100059C060E076E38EE691E054C060E076E397
:100520008EE691E04FC060E076E38EE691E04AC04F
:1005300060E076E38EE691E045C060E076E38EE62B
:1005400091E040C060E076E38EE691E03BC060E081
:1005500076E38EE691E036C060E076E38EE691E0E9
:1005600031C060E076E38EE691E02CC060E076E397
:100570008EE691E027C060E076E38EE691E022C04F
:1005800060E076E38EE691E01DC060E076E38EE603
:1005900091E018C060E076E38EE691E013C060E081
:1005A00076E38EE691E00EC060E076E38EE691E0C1
:1005B00009C060E076E38EE691E004C060E076E397
:1005C0008EE691E00E9492212C833D834E835F83CF
:1005D0000AC060E07CE68CED92E00E9492212C83C0
:1005E0003D834E835F838C819D81AE81BF8182304C
:1005F0009105A105B10558F482E090E0A0E0B0E0DB
:100600008C839D83AE83BF8381E0888783C00097FE
:1006100021E0A207B10518F481E088877BC000972C
:1006200062E0A607B10558F4B695A795979587950A
:100630008C839D83AE83BF8382E088876BC00097E5
:1006400024E0A207B10578F4B695A795979587950C
:10065000B695A795979587958C839D83AE83BF8329
:1006600083E0888757C0009768E0A607B10578F453
:10067000689412F8B695A795979587951694D1F733
:100680008C839D83AE83BF8384E0888743C00097BB
:1006900020E4A207B10578F4689415F8B695A795FB
:1006A000979587951694D1F78C839D83AE83BF83EE
:1006B00085E088872FC00097A10561E0B60758F450
:1006C000892F9A2FAB2FBB278C839D83AE83BF834B
:1006D00086E088871FC00097A10524E0B20780F458
:1006E000072E7AE0B695A795979587957A95D1F7D5
:1006F000702D8C839D83AE83BF8387E088870AC07B
:100700008FEF9FEFA0E0B0E08C839D83AE83BF832B
:1007100087E08887E985FA85309741F0888580836E
:10072000E985FA858C819D8186A397A3DF91CF917E
:100730000895FC0110A211A215A262A343A324A351
:100740000895860F971FFC0140830895FC01E60F72
:10075000F71F508341830895FC01E60FF71F508374
:1007600041833283238308956032710584F44830D5
:1007700051056CF4FC01E60FF71F81E090E002C028
:10078000880F991F4A95E2F79081892B80830895FD
:10079000603271058CF44830510574F4FC01E60FA9
:1007A000F71F81E090E002C0880F991F4A95E2F799
:1007B0008095908189238083089516161706DCF4AE
:1007C000FC01680F791F8FEF9FEF2191822728E0AE
:1007D00030E080FF07C09695879541E0842740EA86
:1007E000942702C0969587952150310991F7E61715
:1007F000F70759F708958FEF9FEF08950F931F9311
:10080000CF93DF938C01EB01D8DFF801EC0FFD1FD4
:10081000208130E0492F55272417350751F44181B5
:1008200050E09C01332781E04217530719F080E024
:1008300001C080E0DF91CF911F910F9108950F9338
:100840001F93CF93DF938C01C62FD0E0BE01B5DF9D
:10085000C00FD11F98838983DF91CF911F910F9192
:100860000895FC0166A777A7E45BFF4F20E03EEF09
:10087000208331830895CF93DF93EC01FC01E65B85
:10088000FF4F10823197108231971082319710827A
:10089000319710823197108231971082E0EAF0E0B0
:1008A0008281816082838281826082836AA5888D51
:1008B000998D01DD6BA58A8D9B8DFDDC6EA18889EC
:1008C0009989F9DC6FA18A899B89F5DC68A58C89F7
:1008D0009D89F1DC69A58E899F89EDDC6CA58C8DE5
:1008E0009D8DE9DC40E06E8D88819981F8DC4DA515
:1008F0006F8D8A819B81F3DC40E068A18C819D81B2
:10090000EEDC40E069A18E819F81E9DC40E06AA1D4
:1009100088859985E4DC40E06BA18A859B85DFDCD6
:1009200040E06CA18C859D85DADC40E06DA18E8570
:100930009F85D5DC8EA59FA5009709F41DC1803C3D
:10094000910529F460E180E00E94D91215C181155A
:1009500024E0920729F464E080E00E94D9120CC1DF
:10096000803821E0920729F462E080E00E94D912E9
:1009700003C1811521E0920729F461E080E00E9423
:10098000D912FAC0803823E0920729F461E081E0AF
:100990000E94D912F1C0803923E0920729F461E066
:1009A00082E00E94D912E8C0811522E0920729F462
:1009B00062E081E00E94D912DFC0803422E0920719
:1009C00029F462E082E00E94D912D6C0803223E08E
:1009D000920729F464E082E00E94D912CDC081150B
:1009E00028E0920729F461E083E00E94D912C4C094
:1009F000811529E0920729F461E084E00E94D91270
:100A0000BBC081152AE0920729F461E085E00E94CD
:100A1000D912B2C081152BE0920729F461E086E07B
:100A20000E94D912A9C0803428E0920729F462E01C
:100A300083E00E94D912A0C0803429E0920729F4F3
:100A400062E084E00E94D91297C080342AE09207C5
:100A500029F462E085E00E94D9128EC0803928E036
:100A6000920729F464E083E00E94D91285C080399E
:100A700029E0920729F464E084E00E94D9127CC046
:100A800080392AE0920729F464E085E00E94D912B7
:100A900073C080392BE0920729F464E086E00E945D
:100AA000D9126AC0803C28E0920729F468E083E00C
:100AB0000E94D91261C0803C29E0920729F468E0C5
:100AC00084E00E94D91258C0803C2AE0920729F4A1
:100AD00068E085E00E94D9124FC0803A28E0920772
:100AE00029F460E183E00E94D91246C0803A29E0EF
:100AF000920729F460E184E00E94D9123DC0803A57
:100B00002AE0920729F460E185E00E94D91234C0FE
:100B1000803A2BE0920729F460E186E00E94D91226
:100B20002BC0803B28E0920729F460E283E00E941A
:100B3000D91222C0803B29E0920729F460E284E0C8
:100B40000E94D91219C0803B2AE0920729F460E282
:100B500085E00E94D91210C0803824E0920729F461
:100B600060E483E00E94D91207C0803A944021F4E7
:100B700060E485E00E94D912EEA5FFA51182EEA5E2
:100B8000FFA582E08683EEA5FFA51082E88DF98D92
:100B9000309751F09085FE01EC5BFF4F8AA58923C9
:100BA00091E009F090E09083EA8DFB8D309751F051
:100BB0009085FE01EB5BFF4F8BA5892391E009F047
:100BC00090E09083E889F989309751F09085FE0193
:100BD000E95BFF4F8EA1892391E009F090E09083BB
:100BE000EA89FB89309751F09085FE01E85BFF4F61
:100BF0008FA1892391E009F090E09083EC89FD8931
:100C0000309751F09085FE01E75BFF4F88A589235F
:100C100091E009F090E09083EE89FF89309751F0E0
:100C20009085FE01E65BFF4F89A5892391E009F0DD
:100C300090E09083EC8DFD8D309751F09085FE0112
:100C4000EA5BFF4F8CA5892391E009F090E0908347
:100C5000DF91CF9108950F931F93CF93DF93EC0112
:100C6000FC01EE5BFF4F808186130EC008AD19AD0D
:100C70002AAD3BAD8CAD9DADAEADBFAD081719072C
:100C80002A073B0709F4F0C0662349F028AD39ADC7
:100C90004AAD5BAD2115310541055105B1F4EEA515
:100CA000FFA51082FE01EE5BFF4F10821CAE1DAE51
:100CB0001EAE1FAEEE81FF81309711F089A18683B1
:100CC000E881F9818E8D8683CFC060E07CE68CED73
:100CD00092E00E949221223031054105510558F4DD
:100CE000EEA5FFA582E090E086A397A3EEA5FFA561
:100CF00081E08083A6C02115310561E046075105DA
:100D000048F4EEA5FFA526A337A3EEA5FFA581E035
:100D1000808397C02115310562E04607510578F4BC
:100D2000EEA5FFA5DA01C901B695A7959795879518
:100D300086A397A3EEA5FFA582E0808382C021153C
:100D4000310564E04607510598F4EEA5FFA5DA01E8
:100D5000C901B695A79597958795B695A795979547
:100D6000879586A397A3EEA5FFA583E0808369C03E
:100D70002115310568E04607510598F4EEA5FFA559
:100D8000DA01C901689412F8B695A79597958795E9
:100D90001694D1F786A397A3EEA5FFA584E08083E0
:100DA00050C02115310560E44607510598F4EEA5C1
:100DB000FFA5DA01C901689415F8B695A79597952E
:100DC00087951694D1F786A397A3EEA5FFA585E096
:100DD000808337C021153105410561E0560768F46D
:100DE000EEA5FFA5BB27A52F942F832F86A397A33E
:100DF000EEA5FFA586E0808324C0211531054105BD
:100E000064E05607A0F4EEA5FFA5DA01C901072E9C
:100E10007AE0B695A795979587957A95D1F7702D35
:100E200086A397A3EEA5FFA587E080830AC0EEA561
:100E3000FFA58FEF9FEF86A397A3EEA5FFA587E001
:100E4000808381E0FE01EE5BFF4F808388AD99AD2A
:100E5000AAADBBAD8CAF9DAFAEAFBFAFEE81FF8192
:100E6000309711F089A18583DF91CF911F910F9168
:100E70000895FC01DC01AF5BBF4F8C918617C9F070
:100E800081E0611101C080E08C9385A5882321F069
:100E900081E0611180E0682F662331F0A281B38187
:100EA000878D15968C930895A281B381878D1696B0
:100EB0008C930895FC01E05CFF4F20812617C1F060
:100EC00021E0611101C020E02083662349F0DC01AC
:100ED0001496ED91FC91159790968C9185830895C9
:100EE000DC011496ED91FC91159790968C91868378
:100EF0000895FC01ED5BFF4F20812617B1F021E042
:100F0000611101C020E02083DC011A96ED91FC9173
:100F10001B97309751F0662321F093968C9185832F
:100F20000895DC0193968C9186830895662349F099
:100F3000DC011896ED91FC91199792968C9185831E
:100F40000895DC011896ED91FC91199792968C9179
:100F5000868308958F929F92AF92BF92CF92DF9235
:100F6000EF92FF920F931F93CF93DF938C01EB01CE
:100F70008BA128A139A12430310514F09B8101C037
:100F800090E0891BFE01E80FF11D818184FF05C0FF
:100F9000F80110AA11AA12AA13AAEBA1F0E0369642
:100FA00088A199A1049714F08B8101C080E0E81B0F
:100FB000F109EC0FFD1F808190E0A0E0B0E0B82FB8
:100FC000AA27992788272381820F911DA11DB11D72
:100FD000418150E060E070E0BA0155274427840F5A
:100FE000951FA61FB71F428150E060E070E0762F8A
:100FF000652F542F4427840F951FA61FB71FF80194
:1010000080AF91AFA2AFB3AFEBA1F0E0329688A171
:1010100099A1049714F08B8101C080E0E81BF109CD
:10102000EC0FFD1F808190E0A0E0B0E0B82FAA2770
:10103000992788272381820F911DA11DB11DC18091
:10104000D12CE12CF12C7601DD24CC24AC01BD01A6
:101050004C0D5D1D6E1D7F1D828190E0A0E0B0E013
:10106000BA2FA92F982F8827840F951FA61FB71F67
:10107000F80184AB95ABA6ABB7AB2BA148A159A1A6
:10108000443051050CF488C03B81422F431BFE01C4
:10109000E40FF11D7181472F50E0FA01F595E795B6
:1010A000F595E795F595E7956E2F61705595479500
:1010B000F42FF170DF2E7170E72E231BFE01E20F7B
:1010C000F11DF180F2FAFF24F0F86623D1F0F80167
:1010D00080A891A8A2A8B3A888169906AA06BB065C
:1010E00044F088159905AA05BB053CF0E12C60E0A9
:1010F00008C0EE24E394D12C04C0EE24E394DD2454
:10110000D394C801F6DE6D2DC801D4DEF801EA5B88
:10111000FF4F808181111EC031968081811104C0F2
:1011200032968081882329F0D1104DC0F12CE12C1A
:1011300016C0F801E85BFF4F8081811106C0F801FD
:10114000E65BFF4F8081882351F0DD2041F0F12CD8
:10115000E12C05C0F12CE12C02C0F12CE12C6E2D0C
:10116000C80179DD6F2DC80184DE8BA128A139A1CA
:101170002430310514F09B8101C090E0891BC80F19
:10118000D11D698165FB662760F9F801E55BFF4FBA
:101190006083C801CBDE1EC0FE01E20FF11D31816C
:1011A000432F50E0BA0175956795759567957595CC
:1011B0006795617055954795F42FF170DF2E31706A
:1011C000E32E30E07ACFF801E85BFF4F8081811198
:1011D000C4CFB5CFDF91CF911F910F91FF90EF90CA
:1011E000DF90CF90BF90AF909F908F9008950F9316
:1011F0001F93CF93DF938C01EA01FB0180E090E025
:1012000007C08CA1682F70E064307105ACF41EC07B
:10121000DB0190962D913C9191978217930714F4DE
:10122000208101C020E0DA012D93AD0101963196B5
:101230008330910569F7E5CFFE0133969E01280FB3
:10124000311DC90111928E179F07E1F768A379A399
:1012500040E050E0CE017ADA6CA170E06F5F7F4F22
:10126000F801EE5BFF4F8081882329F040E050E0D9
:10127000CE017ADA04C040E050E0CE0189DA6CA1F8
:1012800070E06F5F7F4FF801E05CFF4F8081882343
:1012900029F041E050E0CE0167DA04C041E050E0BF
:1012A000CE0176DA6CA170E06F5F7F4FF801EF5BE3
:1012B000FF4F8081882329F042E050E0CE0154DACC
:1012C00004C042E050E0CE0163DA6CA170E06F5FD1
:1012D0007F4FF801ED5BFF4F8081882329F043E0C9
:1012E00050E0CE0141DA04C043E050E0CE0150DAD4
:1012F0006CA170E06F5F7F4FF801E95BFF4F808169
:10130000882329F044E050E0CE012EDA04C044E006
:1013100050E0CE013DDA6CA170E06F5F7F4FF801C5
:10132000E85BFF4F8081882329F045E050E0CE0143
:101330001BDA04C045E050E0CE012ADA6CA170E06F
:101340006F5F7F4FF801EC5BFF4F8081882329F0AE
:1013500046E050E0CE0108DA04C046E050E0CE019D
:1013600017DA6CA170E06F5F7F4FF801EB5BFF4F06
:101370008081882329F047E050E0CE01F5D904C0F0
:1013800047E050E0CE0104DA6CA170E0F801E75BC1
:10139000FF4F8081882329F040E050E0CE01E4D95E
:1013A00004C040E050E0CE01F3D96CA170E0F80138
:1013B000E65BFF4F8081882329F041E050E0CE01B9
:1013C000D3D904C041E050E0CE01E2D96CA170E075
:1013D000F801EA5BFF4F8081882329F042E050E06A
:1013E000CE01C2D904C042E050E0CE01D1D96CA1F7
:1013F00070E0F801E55BFF4F8081882329F043E02E
:1014000050E0CE01B1D904C043E050E0CE01C0D9D4
:10141000D801D0962D913D914D915C91D3976CA1BF
:1014200070E06E5F7F4FCE0197D9F80120AD31ADEE
:1014300042AD53AD6CA170E06A5F7F4FCE018CD995
:10144000F801E45BFF4F2081318140E050E06CA166
:1014500070E0665F7F4FCE017FD96CA1625FCE01E5
:10146000EED98CA190E0409688A399A3DF91CF910B
:101470001F910F9108950F931F93CF93DF93FC015A
:10148000A081B18118968C911897968D892319F0B7
:1014900016969C933DC0EF01CD5BDF4F888188237A
:1014A000A9F004A915A926A937A940A951A962A99B
:1014B00073A9041715072607370741F4EF0160E009
:1014C000CF01C9DB60E0CE0114DD22C015969C93EC
:1014D000DF01AF5BBF4F8C918823D1F080A991A928
:1014E000A2A9B3A9EF01C05CDF4F2881222321F01C
:1014F0004FEF5FEFBA0104C041E050E060E070E000
:10150000840F951FA61FB71F80AB91ABA2ABB3ABE7
:10151000DF91CF911F910F910895CF93DF93EC014D
:10152000E889F989309751F09085FE01E95BFF4F1A
:101530008EA1892391E009F090E09083FE01E95BA0
:10154000FF4F8081882309F44CC037978081811137
:1015500043C060E0CE017FDB60E0CE01CADCEC85F9
:10156000FD85309759F0DE01A95BBF4F8C91882330
:1015700019F08CA1858302C08CA18683EA89FB893E
:10158000309751F09085FE01E85BFF4F8FA18923D2
:1015900091E009F090E09083FE01E85BFF4F8081CD
:1015A000882349F138978081882301F160E0CE01DA
:1015B00052DB60E0CE019DDCEE85FF853097F9F0CF
:1015C000DE01A85BBF4F8C91882319F08DA1858324
:1015D00016C08DA1868313C0EC85FD85309749F632
:1015E000CDCFEC85FD85309739F6C8CFEE85FF85E8
:1015F000309761F704C0EE85FF85309751F7DF9192
:10160000CF910895EF92FF920F931F93CF93DF93A3
:10161000EC018B017A0140E050E0BA0104960E948F
:101620007A010A831B830D871E87E882F982DF9186
:10163000CF911F910F91FF90EF900895CF93DF937B
:10164000EC018A819B81009709F4FDC0803C9105E3
:1016500021F460E180E0ADD7F6C0811524E0920767
:1016600021F464E080E0A5D7EEC0803821E0920745
:1016700021F462E080E09DD7E6C0811521E0920769
:1016800021F461E080E095D7DEC0803823E0920746
:1016900021F461E081E08DD7D6C0803923E0920744
:1016A00021F461E082E085D7CEC0811522E0920767
:1016B00021F462E081E07DD7C6C0803422E0920749
:1016C00021F462E082E075D7BEC0803223E0920749
:1016D00021F464E082E06DD7B6C0811528E092075E
:1016E00021F461E083E065D7AEC0811529E092075F
:1016F00021F461E084E05DD7A6C081152AE092075D
:1017000021F461E085E055D79EC081152BE092075A
:1017100021F461E086E04DD796C0803428E092073E
:1017200021F462E083E045D78EC0803429E092073F
:1017300021F462E084E03DD786C080342AE092073D
:1017400021F462E085E035D77EC0803928E0920739
:1017500021F464E083E02DD776C0803929E0920738
:1017600021F464E084E025D76EC080392AE0920736
:1017700021F464E085E01DD766C080392BE0920734
:1017800021F464E086E015D75EC0803C28E0920733
:1017900021F468E083E00DD756C0803C29E0920731
:1017A00021F468E084E005D74EC0803C2AE092072F
:1017B00021F468E085E0FDD646C0803A28E0920733
:1017C00021F460E183E0F5D63EC0803A29E092073B
:1017D00021F460E184E0EDD636C0803A2AE0920739
:1017E00021F460E185E0E5D62EC0803A2BE0920737
:1017F00021F460E186E0DDD626C0803B28E0920738
:1018000021F460E283E0D5D61EC0803B29E0920738
:1018100021F460E284E0CDD616C0803B2AE0920736
:1018200021F460E285E0C5D60EC0803824E092073E
:1018300021F460E483E0BDD606C0803A944019F4F8
:1018400060E485E0B6D6EA81FB8183E0818340E0F5
:1018500050E0BA01CE0104960E947A01DF91CF9147
:101860000895FC01178A108E2FEF3FEF218F328FE2
:1018700004960C947A010895EF92FF920F931F93B0
:10188000CF93DF937C018B01EA01FB0180E090E0C4
:1018900007C08CA1682F70E064307105ACF41EC0E5
:1018A000D80190962D913C9191978217930714F44B
:1018B000208101C020E0DA012D93AD01019631961F
:1018C0008330910569F7E5CFFE0133969E01280F1D
:1018D000311DC90111928E179F07E1F768A379A303
:1018E000D7011C964C9150E0CE010E94A603F7014F
:1018F000408551856CA170E06E5F7F4FCE010E94E4
:10190000A603D70157964D915C9158976CA170E052
:101910006C5F7F4FCE010E94A603F701418D528D6F
:101920006CA170E06A5F7F4FCE010E94A603D701D1
:101930001F964D915C9150976CA170E0685F7F4F4E
:10194000CE010E94A603F701418952896CA170E083
:10195000665F7F4FCE010E94A603D70153964D913B
:101960005C9154976CA170E0645F7F4FCE010E9440
:10197000A603F701458956896CA170E0625F7F4F2D
:10198000CE010E94A603D80190968D919C919197CB
:101990001816190614F44C9101C040E06CA170E0D7
:1019A000605F7F4FCE010E94A103F80180A191A149
:1019B000029714F0418101C040E06CA170E06F5EBD
:1019C0007F4FCE010E94A103D80190968D919C91EA
:1019D000919703971CF012964C9101C040E06CA1C6
:1019E00070E06E5E7F4FCE010E94A103F80180A1DE
:1019F00091A1049714F0438101C040E06CA170E014
:101A00006D5E7F4FCE010E94A1036CA16C5ECE0182
:101A10000E941F048CA190E0469688A399A3DF91B1
:101A2000CF911F910F91FF90EF900895CF92DF9289
:101A3000EF92FF920F931F93CF93DF93EC019B01E3
:101A40000F89188DA98DBA8DA01BB10B0E94BC21E6
:101A5000CC24CA94DC2CE12CF12CA70196010E9425
:101A60009221CA01B901600F711F811D911D088566
:101A700019852A853B85A9019801442755270E948D
:101A80006F21A70196010E949221C901DF91CF9198
:101A90001F910F91FF90EF90DF90CF900895CF931B
:101AA000DF93EC01C3DF8F87988BEA81FB8180A7EE
:101AB00091A7DF91CF910895DC01ED91FC911197F1
:101AC00021E021831296ED91FC91139721812061F1
:101AD000218360E070E0E3CF0895CF93DF93EC01C2
:101AE000A5DF898B9A8BEA81FB8182A793A7DF917F
:101AF000CF910895DC01ED91FC91119722E02183B3
:101B00001296ED91FC91139721812062218360E070
:101B100070E0E3CF0895CF93DF93EC0187DF8B8BE9
:101B20009C8BEA81FB8184A795A7DF91CF910895D3
:101B3000DC01ED91FC91119724E021831296ED9147
:101B4000FC91139721812064218360E070E0E3CF52
:101B50000895DC01ED91FC91119728E02183129604
:101B6000ED91FC91139721812068218360E070E062
:101B7000D2CF0895CF93DF93EC0158DF8D8B9E8BEE
:101B8000EA81FB8186A797A7DF91CF9108950F93F4
:101B90001F93CF93DF938C01EB01EBA1F0E088A1C1
:101BA00099A1049714F08B8101C080E0E81BF10932
:101BB000EC0FFD1F408150E060E070E0742F66275D
:101BC000552744278381480F511D611D711D818157
:101BD00090E0A0E0B0E0DC0199278827480F591F6A
:101BE0006A1F7B1F828190E0A0E0B0E0BA2FA92F8E
:101BF000982F8827480F591F6A1F7B1FC80131DEA5
:101C00008BA190E09C012A5F3F4F48A159A144302D
:101C100051050CF47DC04B81241B3109FE01E20FFC
:101C2000F31F208130E0322F22275181250F311DF3
:101C30000496841B9109FE01E80FF91F808190E052
:101C4000982F88274181840F911DF801878B908FF1
:101C5000218F328FEBA1F0E0389688A199A10497EB
:101C600014F08B8101C080E0E81BF109EC0FFD1F2F
:101C7000608170E0762F66278181680F711DC80131
:101C80000EDFEBA1F0E03A9688A199A1049714F039
:101C90008B8101C080E0E81BF109EC0FFD1F608122
:101CA00070E0762F66278181680F711DC80115DFEE
:101CB000EBA1F0E03C9688A199A1049714F08B81E8
:101CC00001C080E0E81BF109EC0FFD1F608170E0AE
:101CD000762F66278181680F711DC8011CDF8BA1DB
:101CE00090E00E9628A139A12430310514F02B8103
:101CF00001C020E0821B9109C80FD91F688170E0E4
:101D0000762F66278981680F711DC80133DF10C0E7
:101D1000FE01E20FF31F208130E0322F2227FE0167
:101D2000E80FF91F4781240F311D049640E081CF51
:101D3000DF91CF911F910F910895CF93DF93EC0125
:101D40008FEF8093B0006A837B834C835D83FE01B9
:101D5000EA5BFF4F108231961082329610823196E4
:101D60001082329610823497108260E483E021D48E
:101D7000E881F98188E78087E881F981DE01A55B48
:101D8000BF4F8C91880F8387E0EAF0E08281816009
:101D9000828380E090E0FE01E80FF91F16A2019611
:101DA00080329105C1F780E090E0FE01E80FF91F55
:101DB0001682019680329105C1F7DF91CF91089587
:101DC000FC01E45BFF4F2081222379F0DC01ED91DF
:101DD000FC9122E02187FC01E65BFF4F26E0208397
:101DE00031971082339610820895FC01E75BFF4F14
:101DF00021E0208331961082DC01ED91FC91119756
:101E000020852B7F2087FC01EA5BFF4F10823196F3
:101E10001082ED91FC9183E081870895DC01ED91C2
:101E2000FC91119720852B7F2087ED91FC911197D4
:101E3000228520642287FC01E65BFF4F21E020839E
:101E400031971082339760811496ED91FC9115972C
:101E50000696199508950F931F93CF93DF93DC0196
:101E6000ED91FC911197208524602087FC01EA5BAD
:101E7000FF4F2081203258F5EC018F019081E881DD
:101E8000F9818485FD01E90FF11D8683EA81FB81DB
:101E90001995D8018C918F5F8C93FE01E45BFF4F05
:101EA0008081882379F0E881F98182E08187FE01D1
:101EB000E65BFF4F86E0808331971082C45BDF4F83
:101EC000188211C0E881F98183E081870CC0DC01B0
:101ED000ED91FC9126E02187FC01E65BFF4F22E0BB
:101EE000208331971082DF91CF911F910F91089538
:101EF000CF93DF93FC01E95BFF4F2081222341F167
:101F0000DC01ED91FC91228524FD2BC021C0FC0158
:101F1000A081B181E95BFF4F2081EC01C20FD11D8F
:101F20002EA11C962C9320812F5F2083DC01ED9144
:101F3000FC9183E081871EC0DC01ED91FC9122E0E1
:101F40002187FC01E65BFF4F20833197108212C08E
:101F5000FC01E95BFF4F308131962081321760F739
:101F6000D6CF22E02187FC01E65BFF4F21E02083F2
:101F700031971082DF91CF910895DC01ED91FC91B2
:101F8000228521FF02C0B4CF089565CF0895DC01FA
:101F9000ED91FC91228522FF0CC0FC01EA5BFF4F12
:101FA000108231961082339624E02083319710827C
:101FB000089523FF0CC0FC01EA5BFF4F10823196AD
:101FC0001082339623E02083319710820895422FA8
:101FD0004074322F3174313411F4F2CE0895442319
:101FE00011F01CCF0895222314F4C7CF0895FC01EB
:101FF000E65BFF4F25E02083319710820895089516
:102000000F931F93CF93DF931F92CDB7DEB78C0151
:1020100069838091962190919721892B31F589814F
:10202000882301F120E030E0A6E7B1E2F801E20FF9
:10203000F31F908190964D915C919197403251059C
:1020400054F4FA01EA58FE4D90834F5F5F4F90962B
:102050004D935C9391972F5F3F4F498150E0241738
:10206000350724F384E080939B210F90DF91CF917B
:102070001F910F910895CF93DF93E0E5F1E210A255
:1020800011A215A260919621709197216250710959
:1020900086E791E20E94FE0381111EC0C0E5D1E2F5
:1020A000E6E7F1E280818883818192819A8393813E
:1020B0009B83805889831C8282E08D8386E090E038
:1020C00088A399A366E0CE010E941F0488A199A16C
:1020D000029688A399A34AC080917821893099F407
:1020E00080917721833111F0803129F466E771E224
:1020F00087EE90E24CDD40E551E266E771E287EE63
:1021000090E2BADB33C08130A1F480917721833132
:1021100011F0803131F466E771E282E091E20E94D1
:10212000AA0740E551E266E771E282E091E25FD8FA
:102130001DC0C0E5D1E2E6E7F1E2808188838181BC
:1021400092819A8393819B83805889831C828FE03C
:102150008D8386E090E088A399A366E0CE010E947B
:102160001F0488A199A1029688A399A3E6E7F1E24A
:1021700010A211A215A2DF91CF910895CF93DF9302
:102180008091962190919721892BB9F4C6E7D1E2ED
:102190007AD4882379F0C4D428A139A1203231051A
:1021A000BCF7F901EA58FE4D80832F5F3F4F28A30B
:1021B00039A3EECF83E080939B21DF91CF910895E7
:1021C000CF92DF92EF92FF920F931F93CF93DF9303
:1021D0008091962190919721892B09F45BC01091F1
:1021E0009B21112309F456C0E6E7F1E292A1808118
:1021F000981350C040DFC0917021D09171211430EC
:1022000011F51092E2201C161D060CF03EC040E5B0
:1022100051E280E090E0A2EEB0E28C179D071CF442
:10222000FA01208101C020E0EC91F0E0E656FF4D7C
:1022300026A32C912F5F2C9301964F5F5F4F8C1735
:102240009D0759F722C0133001F51C161D06ECF44A
:102250000F2EF0E5EF2EF1E2FF2EF02D00E010E062
:102260006701F60180A191A1081719071CF4F70175
:10227000808101C080E090E0D6D40F5F1F4FFFEF58
:10228000EF1AFF0A0C171D0761F7E0E5F1E210A253
:1022900011A215A2DF91CF911F910F91FF90EF90A6
:1022A000DF90CF900895789414D1A9D5E0EAF0E0BA
:1022B00082818160828387EE90E2C0D987EE90E2CE
:1022C000FBDB87EE90E216DC87EE90E231DC87EEF6
:1022D00090E23FDC40E25EE460E070E087EE90E296
:1022E000C0DA60E375E787EE90E2D9DB60E67AEE6C
:1022F00087EE90E2F2DB60E177E287EE90E20BDCC2
:1023000060E375E787EE90E235DCC2E0D1E280E879
:1023100096E08883998321E02E8F8C839D8334E01F
:1023200038A38A839B8332E03F8F2DA78A879B87C0
:1023300088E08BA380EA96E0888799872AA380E4C7
:1023400096E0888B998B20E12EA38A8B9B8B80E271
:102350008FA3CE010E943B0488EE93E0A0E0B0E0A2
:1023600088AF99AFAAAFBBAF61E0CE010E94390739
:1023700040E050E16FEF7FE08AE990E2DEDC20DFB1
:10238000FECF1F920F920FB60F9211240BB60F9231
:102390002F933F934F935F936F937F938F939F936D
:1023A000AF93BF93EF93FF9382E091E264D8FF91E4
:1023B000EF91BF91AF919F918F917F916F915F91BD
:1023C0004F913F912F910F900BBE0F900FBE0F902A
:1023D0001F9018951F920F920FB60F9211240BB6F3
:1023E0000F922F933F934F935F936F937F938F93AE
:1023F0009F93AF93BF93EF93FF9382E091E28DD8C9
:10240000FF91EF91BF91AF919F918F917F916F91CC
:102410005F914F913F912F910F900BBE0F900FBE88
:102420000F901F9018951F920F920FB60F921124C4
:102430000BB60F922F933F934F935F936F937F93BE
:102440008F939F93AF93BF93EF93FF938AE990E2AB
:102450009EDDFF91EF91BF91AF919F918F917F9101
:102460006F915F914F913F912F910F900BBE0F9005
:102470000FBE0F901F90189524E046E061E086E7BC
:1024800091E20E94990324E046E061E080E591E258
:102490000E94990360E07AE082E091E20E943104B8
:1024A00040E656E060E079E087EE90E2ABD886E562
:1024B0008093E52080E894E080939A2090939B207D
:1024C000089508950895089581E008950895089560
:1024D00008950F931F93CF93DF9300D01F92CDB732
:1024E000DEB78FEF8093700080937100809372004D
:1024F00080937300809374008093750080937600BE
:1025000064E081E490E056D76CE170E082E058D757
:102510008A836DE170E082E053D7898389819A8153
:10252000019621F480E493E289839A8389819A81D8
:102530008B839C83E0E6F0E082838C8183839FB76A
:10254000F894E0E5F0E08081826080839FBF818124
:1025500081FFFDCF9FB7F89400E510E0D8011696F3
:102560008C911697897F16968C931697E0E6F0E08B
:1025700080E885838BEB868316968C911697846012
:1025800016968C938081816080839FBF61E080E498
:1025900090E010D79FB7F894F80180818E7F8083F8
:1025A0009FBF2496CDBFDEBFDF91CF911F910F91CA
:1025B00008959FB7F894E82FF0E0E059FF4F609539
:1025C0008081682360839FBF0895863011F060E0AA
:1025D00001C068E18091510081FD26C09FB7F89449
:1025E000E0E5F0E08081826080839FBF818181FF90
:1025F000FDCF9FB7F894A0E5B0E016968C911697A2
:10260000897F16968C931697E0E6F0E080E8858344
:102610008BEB868316968C911697846016968C9316
:102620008081816080839FBF636084E490E0C2D634
:1026300060E480E0BECF08958091B2228150809303
:10264000B222089580E0089580E0089560EC72E27F
:1026500080E03ECF08951092B2221092BE221092D6
:10266000BF22E4EBF2E281EA808380E2818312827E
:1026700013821482158282E090E08683978310860D
:102680001186E0ECF2E280E092ECA1E0B0E0808321
:102690009183A283B3831482158288E08683BF016D
:1026A00080E016DF80E010DF882329F09091B222CD
:1026B0009F5F9093B2220895FF920F931F93CF9341
:1026C000DF9380919F2181119DC00E94811D8823ED
:1026D00051F0C091A021D091A1210E948E1DC81758
:1026E000D90759F48FC0C091A021D091A1210E9497
:1026F000891DC817D90709F485C0DFB7F894C091C0
:10270000A221EC2FF0E0EE0FFF1FED55FE4D808172
:102710009181892B09F580919C2190919D210196B1
:1027200080939C2190939D210E94811D811107C05F
:1027300080919C2190919D218436910558F00E94B2
:10274000811D882349F080919C2190919D218032A8
:10275000934010F4DFBF56C010929C2110929D212F
:1027600080919E21811106C081E0C11180E080939B
:10277000A22104C081E0C11180E0C82F81E08093D4
:102780009F21DFBFD0E0FE01EE0FFF1FED55FE4D94
:1027900080819181FF24F3948034910509F4F12C18
:1027A0008034910591F00E94811D882339F00E94A8
:1027B0008E1D8093A0219093A1210BC00E94891DA2
:1027C0008093A0219093A12104C01092A021109287
:1027D000A121FE01EE0FFF1FED55FE4D208131813D
:1027E000AE01002456954795079456954795079452
:1027F000542F402D48555E4D08E014E16F2D81E8BF
:102800000E94701EDF91CF911F910F91FF9008954C
:10281000811115C02091A22181E090E0222311F0C6
:1028200080E090E0880F991FFC01ED55FE4D10826D
:10283000118210929E2110929F2180E03DCF089539
:1028400080E03ACF08958091B12281508093B122E7
:102850008091B1223BDE1092B02208958091032432
:102860008823CCF480768032E9F58091042481328B
:10287000D9F58091092490910A240797B9F5E3E0EE
:10288000F4E280EC92E28087918787E090E0828793
:10289000938781E008958076803251F580910424F9
:1028A000803219F08232B9F025C0809109249091CC
:1028B0000A24079709F5E3E0F4E286E293E18487CE
:1028C000958780EC92E28087918787E090E082870D
:1028D000938781E0089560910524617080E0F7DDC1
:1028E00081E0089580E0089580E0089580E00895F3
:1028F00080E0089580E0089580E008952FB7F8946F
:102900004091292250912A22E0912B22F0E0EE0FF3
:10291000FF1FE45DFD4D80819181841B950B2FBFCE
:102920000895ECDF21E0892B09F420E0822F08953F
:102930000F931F93CF93DF939FB7F89420912B228F
:1029400080912822811110C06091292270912A2241
:10295000C22FD0E0FE01EE0FFF1FE45DFD4D408170
:1029600051816417750718F49FBF80E027C010924B
:10297000292210922A2281E0211180E080932B22CB
:1029800081E0809328229FBF80E0CBDF882311F075
:1029900080E0F4DBAE0100245695479507945695E8
:1029A00047950794542F402D405D5D4D03E115E19F
:1029B00020E430E061E082E00E94701EDF91CF9160
:1029C0001F910F9108951092B12210929F211092A1
:1029D0009E211092A221E3EAF1E21082118212827A
:1029E00013821092A0211092A12180E065DE109246
:1029F000282210922B2210922C2210922D2210921B
:102A0000292210922A2280E093DF882359F09091A6
:102A1000B1229F5F9093B1229091B122913011F435
:102A20009093B02208950F931F93811129C0809134
:102A30002B22E1E08111E0E0842F61157105A9F4FA
:102A40004E2F50E00024569547950794569547958C
:102A50000794542F402D405D5D4D03E115E120E4C6
:102A600030E061E00E94701E0BC0F0E0EE0FFF1F2F
:102A7000E45DFD4D608371831092282280E058DF71
:102A80001F910F91089580E04CCF08950F931F93ED
:102A9000CF93C1E08091C622893009F0C0E060E0A8
:102AA00070E09FB7F8942091292230912A228091DA
:102AB0002B229FBF90E0FC01EE0FFF1FE45DFD4D58
:102AC000408151812417350730F08091B022811167
:102AD000E8CF90E021C0FC010024F695E79507942B
:102AE000F695E7950794FE2FE02DE05DFD4DE20F92
:102AF000F31F80818B01082B2F5F3F4F20932922EA
:102B000030932A2280E014DFCC2321F0702F662737
:102B1000C0E0C7CF802F912FCF911F910F910895C3
:102B200080E0B4CF08955FB7F8948091A221E82F98
:102B3000F0E0EE0FFF1FED55FE4D2081318141E0A9
:102B4000811140E0E42FF0E0EE0FFF1FED55FE4D48
:102B5000808191812034310589F460919F21611138
:102B60000DC060919E21611109C081E080939E217A
:102B70004093A22180E490E020E030E05FBF820F2C
:102B8000931F20E830E0A901481B590BCA010895A2
:102B9000CADF21E0892B09F420E0822F08951F93DA
:102BA000CF93DF93162FC72FD1E08091C6228930B3
:102BB00009F0D0E080E0ECDF811107C08091B02205
:102BC0008111F8CF80E090E02AC04FB7F89480914F
:102BD000A22190E0FC01EE0FFF1FED55FE4D20817C
:102BE0003181B9016F5F7F4F6083718300249695B7
:102BF00087950794969587950794982F802D8855EB
:102C00009E4DFC01E20FF31F10834FBFDD2329F01F
:102C10001C2FCC0FCC0BD0E0CDCF81E090E0DF912A
:102C2000CF911F910895BC0180E0B9CF0895E09144
:102C3000CC22F091CD220190F081E02D22813381D0
:102C40002E0F3F1FFC014081E40FF11DE217F30737
:102C5000A0F481818430A1F0861306C014C0818164
:102C60008430A1F08617A9F08081E80FF11DE217EA
:102C7000F307A8F380E090E0089580E090E00895E5
:102C800080E090E008958E2F9F2F089580E090E0DF
:102C900008958E2F9F2F0895809105248F7733C735
:102CA00008959091CE22992381F1E091CC22F09168
:102CB000CD220190F081E02D9481891740F5E093B9
:102CC000CA22F093CB22228133812E0F3F1FE217BD
:102CD000F307F8F49181943061F49281891309C06B
:102CE0009381961306C0E093CA22F093CB2281E031
:102CF00008959081E90FF11DE217F30758F3E0936F
:102D0000CA22F093CB2280E0089580E0089580E00D
:102D1000089580E00895EF92FF921F93CF93DF9381
:102D2000C82F60E0BEDF182F882381F1A091CC224C
:102D3000B091CD22EC2FF0E0EE0FFF1F12968D9197
:102D40009C911397E80FF91FE080F180D701169648
:102D5000ED91FC9117971995682F8C2FA2DF182FF2
:102D60008823A1F0C091CA22D091CB2265E0CE0188
:102D70005EDFEC01892B21F08A810E947C1FF6CF57
:102D8000D7011296ED91FC9113971995812FDF9140
:102D9000CF911F91FF90EF9008951F93CF93DF93F2
:102DA000182F7FDF882339F1C091CA22D091CB221E
:102DB00065E0CE013CDFEC01892B41F04C815D8167
:102DC0006B818A81B5D68111F3CF15C0A091CC2239
:102DD000B091CD22E12FF0E0EE0FFF1F12968D9102
:102DE0009C911397E80FF91F0190F081E02D01905D
:102DF000F081E02D1995DF91CF911F91089513C6B1
:102E00000895CF938091CE228823C1F0E091CC2207
:102E1000F091CD220190F081E02D8481882371F022
:102E2000C0E08C2F78DFCF5FE091CC22F091CD22F3
:102E30000190F081E02D8481C81798F31092CE2282
:102E400081E090E08093CF229093D022CF9108959B
:102E5000CF938091CE22882349F1A091CC22B091CA
:102E6000CD22ED91FC91119784818823F9F0C0E087
:102E7000EC2FF0E0EE0FFF1F12968D919C911397AF
:102E8000E80FF91F0190F081E02D0084F185E02D1D
:102E9000309709F01995CF5FA091CC22B091CD2247
:102EA000ED91FC9111978481C81710F3CF9108958B
:102EB0000F931F93CF93DF93E3E0F4E21286138620
:102EC0001486158616861786808188230CF062C2C8
:102ED0002091092430910A242115310509F05FC29F
:102EE00051C28F7109F0A0C090910424963079F0FE
:102EF000983009F48FC0911197C02230310509F044
:102F0000FDC162E070E08FEC92E20BD64DC2809181
:102F1000052490910624292F332722303105A9F06A
:102F200020F42130310541F0ABC123303105D9F116
:102F30002F30310551F1A4C18091142090911520BA
:102F4000DC016C9170E0EDD556C0E0911420F09159
:102F500015202189821708F0D1C19927880F991F60
:102F6000880F991FE0911620F0911720E80FF91FA4
:102F700080819181FC0162817381D3D5E0910B2422
:102F8000F0910C2482E0818336C0809118209091CA
:102F90001920009709F4B2C1DC0112966D917C9161
:102FA0001397BFD528C099278130910571F038F06B
:102FB000029709F06EC1E8E8F0E285E009C064E03C
:102FC00070E086E990E2ADD516C0EEE8F0E287E069
:102FD000AAE7B0E290E0219130E02D933D939F5F0E
:102FE0009817C8F3682F660F6E5F6093782070E0C3
:102FF00088E790E296D5E3E0F4E286819781228526
:1030000033858217930708F0CFC180930D249093E6
:103010000E24CAC12130310509F070C161E070E0B1
:103020008EEC92E27ED5C0C18130E1F5909104240E
:103030009A30C1F52130310509F030C18091CE229E
:10304000882309F42BC1C0910724D0910824009152
:10305000CC221091CD22D801ED91FC918481C8172A
:1030600008F01CC160E08C2F1CDE882309F411C11C
:10307000CE019927880F991FD8011296ED91FC91E6
:103080001397E80FF91F0190F081E02D8681978159
:10309000FC0119958093C92261E070E089EC92E20D
:1030A00040D582C1823009F0F4C08091042481119E
:1030B000E9C02230310509F021C180910724C0D533
:1030C00090E08093C7229093C82262E070E087EC82
:1030D00092E227D569C18F7109F083C090910424D1
:1030E000933009F4D1C018F49130A1F07AC0953032
:1030F00019F0993039F175C08091092490910A2412
:10310000892B09F0FBC08CE496E180930F24909307
:1031100010244AC18091092490910A24892B09F036
:10312000EDC08091052490910624019709F0E6C036
:103130008091CF229091D0228D7F8093CF22909347
:10314000D02232C18091092490910A24892B09F060
:10315000D5C0DCD4882309F49CC02091052430918B
:1031600006243327E0911420F0911520818990E006
:103170008217930708F48DC044DE80910524909156
:1031800006248093CE22882309F40EC1992781500A
:10319000904C880F991F880F991FE0911620F0918D
:1031A0001720E80FF91FE093CC22F093CD22019075
:1031B000F081E02D8481882309F4F6C0C0E060E04E
:1031C0008C2FEBDD882309F464C0CF5FE091CC2223
:1031D000F091CD220190F081E02D8481C81778F321
:1031E000E3C08130E9F4909104249B30C9F48091CC
:1031F000092490910A24892B09F050C08091CE2295
:10320000882309F44BC0E3E0F4E2C481D2818C2F1F
:1032100082DD882309F43DC06D2F8C2FBEDD37C0C1
:103220008230B9F580910424813019F0833099F00F
:103230002DC08091092490910A24892B09F05EC049
:103240008091052490910624892B09F057C0809124
:10325000072411D51CC08091092490910A24892B40
:1032600009F04CC08091052490910624892B09F027
:1032700045C0C3E0D4E28C81F0D58C8159D607C01B
:1032800080E005C080E003C080E001C080E08111E3
:103290008CC0809103248F71813081F58091CE2282
:1032A000882309F471C00091072410910824C0916B
:1032B000CC22D091CD22E881F9818481081708F0D1
:1032C00065C060E0802FEDDC8823C1F0F801FF27A6
:1032D000CF01880F991FEA81FB81E80FF91FC08198
:1032E000D181EE81FF811995682F802FDADC882348
:1032F00029F0EC81FD811995811157C0809103243B
:103300008F71823009F044C08091CE228823B1F1C0
:10331000A091CC22B091CD22ED91FC9111978481A6
:10332000882371F1C0E0EC2FF0E0EE0FFF1F129642
:103330008D919C911397E80FF91F00811181D8019D
:103340001696ED91FC9117971995682F8C2FA9DC93
:10335000882359F1D8011496ED91FC911597199590
:10336000811123C0CF5FA091CC22B091CD22ED91ED
:10337000FC9111979481C917B0F217C080E015C075
:1033800080E013C080E011C080E00FC080E00DC07D
:1033900080E00BC0982F907609F07BCF9CCE982FC1
:1033A000907609F076CF9DCD81E0DF91CF911F918E
:1033B0000F9108951BBEFC0128ED24BF6083089582
:1033C0004091CA01E62FF72F8093CA018491409360
:1033D000CA010895811118C09091FC23992389F0A6
:1033E0002FB7F894EDEFF3E29181915091832FBFC5
:1033F00008C02FB7F894EDEFF3E291819F5F9183BE
:103400002FBF8093FC2308959091FC23992389F387
:10341000F8CF0F93E8ECF4E080818F7D808380818A
:103420008F7D8083E0EDF3E202E005931092D223DA
:103430001092D32300E2069300E40693E8ECF3E253
:1034400000E2069300E40693E3E0F4E214861586B6
:1034500016861786128613861092BA230F91089546
:103460000F9385E08093BA23E1EDF3E204E0059346
:10347000E9ECF3E204E005930F9108950F9383E0E4
:103480008093BA231092D2231092D323E0EDF3E27B
:1034900002E006930F910895E0910F24F09110241B
:1034A000309709F0199508950F93CF93DF9380918A
:1034B000BA23833019F4F0DFACDF5EC08091B6230D
:1034C0009091B723C0910D24D0910E24C81BD90B25
:1034D00071F52091B8233091B923820F931F809307
:1034E000B8239093B9232091092430910A2482179C
:1034F000930721F08091D122882341F084E08093CA
:10350000BA23E8ECF3E202E0069336C0E09111241E
:10351000F0911224309799F01995882381F0109238
:10352000B6231092B723C0910D24D0910E24C0343D
:10353000D10528F01092D122C0E4D0E003C081E090
:103540008093D122ECEBF3E2C68BD78B8091B6232C
:103550009091B72320910B2430910C24280F391F10
:10356000208F318FC80FD91FC093B623D093B723B4
:10357000E0EDF3E202E00693DF91CF910F91089521
:10358000FC018181E82FE7708E2F90E0FC013197DC
:10359000E730F105D0F48827E250FF4F8F4FE4C6A3
:1035A00080E190E0089580E290E0089580E490E06A
:1035B000089580E890E0089580E091E0089580E02B
:1035C00092E008958FEF93E0089588E090E00895E9
:1035D000282F2F7030E0220F331F082E000C990B7C
:1035E0008827990F881F9927820F931F02979C01A4
:1035F000220F331F220F331F220F331F820F931FFF
:103600008E5A9C4D08950F93CF938091CC0480FFE8
:1036100062C081E08093CC04E8ECF3E200E806931A
:10362000E0EDF3E200E806938093CA04E8ECF3E2ED
:1036300000E106938091BA23882329F083508230D9
:1036400008F42ADFE6DE8091CA239091CB23089705
:1036500009F043C088E0E6E7F3E2A3E0B4E20190BA
:103660000D928A95E1F7E8ECF4E080818062808336
:103670008081806280831CDCC82F811103C0F0DE52
:10368000C1E02CC08091032488236CF41092B823ED
:103690001092B9231092B6231092B72382E0809340
:1036A000BA2302DF1BC08091092490910A24892B40
:1036B00011F4E4DE13C01092B8231092B9231092D3
:1036C000B6231092B72381E08093BA23E8ECF3E2AB
:1036D00002E0069303C0C0E001C0C1E08C2FCF918F
:1036E0000F9108958F929F92AF92BF92DF92EF92C7
:1036F000FF920F931F93CF93DF93D82E69DF8C0136
:10370000CD2DCF70D0E0CE01880F991FCD2D0D2C7F
:10371000000CDD0BCC27DD0FCC1FDD27C80FD91F18
:10372000CE01880F991F880F991F880F991F9C0140
:1037300028533C4D7901C90123DF4C01DD200CF0F9
:1037400079C0FE01EE0FFF1FEE0FFF1FEE0FFF1FF0
:10375000E454FC4D22893389D80115968D919C91B2
:103760001697820F931F15968D939C931697139619
:103770002D913C9114978217930709F445C0281B9B
:10378000390B2115B4E03B0738F02FEF33E0C901C6
:10379000B401B4D5281B390BF801808181FF09C021
:1037A000C901B401ABD541E0892B09F040E0842F79
:1037B00001C080E0D8019C9180FB91F99C93FE01AF
:1037C000EE0FFF1FEE0FFF1FEE0FFF1FE454FC4D27
:1037D000128A138A2687378711962D913C9112976A
:1037E00015968D919C911697820F931FCC0FDD1F1C
:1037F000CC0FDD1FCC0FDD1FC453DC4D88839983B4
:10380000F70102E00693E0C0D8018C9181FFC9C0A6
:103810008D7F8C93CC0FDD1FCC0FDD1FCC0FDD1FF8
:10382000C454DC4D1A8A1B8A1E861F86F70102E0EB
:103830000693CAC0FE01EE0FFF1FEE0FFF1FEE0F33
:10384000FF1FE454FC4DA684B784D8018C9182FFFD
:1038500019C01196ED91FC91129715962D913C91FE
:10386000169713968D919C911497B40147D5B0E4A7
:10387000DB9EB00111246E567D4DAC01CF01820F4D
:10388000931F93D5F801258136812A0D3B1D258391
:103890003683838194818217930768F485839683A6
:1038A000CC0FDD1FCC0FDD1FCC0FDD1FC454DC4D52
:1038B0008A899B8976C0FE01EE0FFF1FEE0FFF1F66
:1038C000EE0FFF1FE454FC4D42895389A416B50640
:1038D00009F067C02817390709F463C0AC01421B1F
:1038E000530B9A01211554E0350740F02FEF33E0D8
:1038F000C901B40103D5281B390B05C0C901B401A6
:10390000FDD4281B390BFE01EE0FFF1FEE0FFF1F2A
:10391000EE0FFF1FE454FC4D168617862815390557
:1039200000F5D8018C9184608C93B0E4DB9EC001DB
:1039300011248E569D4DFE01EE0FFF1FEE0FFF1F4F
:10394000EE0FFF1FE453FC4D80839183CC0FDD1FEE
:10395000CC0FDD1FCC0FDD1FC454DC4D8A8A9B8A3F
:103960001CC0F8014181528185819681840F951F89
:10397000FE01EE0FFF1FEE0FFF1FEE0FFF1FE453C0
:10398000FC4D80839183CC0FDD1FCC0FDD1FCC0F4E
:10399000DD1FC454DC4D2A8B3B8BF70102E00693FC
:1039A00013C0D8018C9180FF0FC08E7F8C93179627
:1039B000ED91FC911897309739F015966D917C91A7
:1039C00016974D2D80E01995DF91CF911F910F91A2
:1039D000FF90EF90DF90BF90AF909F908F900895F1
:1039E000CF93CFB7F89481E0F5DCEAECF4E080E423
:1039F000808380E28083E1ECF4E0808181608083D9
:103A0000A9ECB4E08C9182608C93E8ECF4E08081C6
:103A1000806480838C9181608C93808180688083B6
:103A2000CFBFCF910895CF93DF93C0E6D0E0188247
:103A300080E30E94E512E0ECF4E080818064808302
:103A400081E08883CFB7F894ECEBF3E21586158A12
:103A5000158E15A215A615AAE2E5F3E280818E7FE8
:103A60008083EBE5F3E280818E7F8083E4E6F3E2FE
:103A700080818E7F8083EDE6F3E280818E7F80837C
:103A80006AE170E082E09CDC8F3F19F08093FA04D9
:103A900003C08FE18093FA046BE170E082E090DC78
:103AA0008F3F19F08093FB0403C08FE18093FB04E8
:103AB000E0ECF4E080818260808380818068808394
:103AC00080818061808388EC93E286839783808104
:103AD000806280838FEF8093C504E8ECF4E08081FE
:103AE000816080831092FC239FB7F894EDEFF3E29E
:103AF00085818F5F85839FBF73DFCFBFDF91CF91BC
:103B0000089580E008958093C30408958091C304CC
:103B100008958091F8239091F923089580E090E032
:103B20000895E3E0F4E280879187628773870895C0
:103B3000282F2F7030E0220F331F082E000C990B16
:103B40008827990F881F9927820F931FFC01EE0F7A
:103B5000FF1FEE0FFF1FEE0FFF1FE454FC4D2585E6
:103B6000207C09F069C06370613011F018F404C062
:103B700060EC03C060E801C060E440385105E9F042
:103B800050F440325105A9F040345105A1F04031C4
:103B90005105D9F40CC0411522E0520791F04F3F76
:103BA00023E0520781F04115514079F408C021E02B
:103BB0000DC022E00BC023E009C024E007C025E0CF
:103BC00005C026E003C027E001C020E0FC01EE0FA5
:103BD000FF1FEE0FFF1FEE0FFF1FE454FC4D158675
:103BE00036E03487262B2587FC01EE0FFF1FEE0FF2
:103BF000FF1FEE0FFF1FE454FC4D2585207C203C69
:103C000069F4FC01EE0FFF1FEE0FFF1FEE0FFF1F09
:103C1000E454FC4D25852770273081F0880F991FCB
:103C2000880F991F880F991FFC01E454FC4D85856E
:103C30008062858781E0089580E0089581E008959D
:103C4000E82FEF70F0E0EE0FFF1F082E000C990B2D
:103C50008827990F881F9927E80FF91FEE0FFF1F7C
:103C6000EE0FFF1FEE0FFF1FE454FC4D858582FB16
:103C7000882780F90895282F2F7030E0A901440F7C
:103C8000551F282F082E000C330B2227330F221F1D
:103C90003327240F351FF901EE0FFF1FEE0FFF1F13
:103CA000EE0FFF1FE454FC4D958592FF17C0220FC5
:103CB000331F220F331F220F331FF901E454FC4D31
:103CC00095859B7F958784DCFC01808180FF06C001
:103CD0008E7F80830780F085E02D199581E008951F
:103CE0008F929F92AF92BF92CF92DF92EF92FF920C
:103CF0000F931F93CF93DF93982E862E6A0179013D
:103D000067DC5C01292DC92DCF70D0E0CE01880F72
:103D1000991FC92D092C000CDD0BCC27DD0FCC1F02
:103D2000DD27C80FD91FFE01EE0FFF1FEE0FFF1F8B
:103D3000EE0FFF1FE454FC4D8585807C09F47DC0A7
:103D4000FE01EE0FFF1FEE0FFF1FEE0FFF1FE454EB
:103D5000FC4D8585807C803C61F0FE01EE0FFF1FED
:103D6000EE0FFF1FEE0FFF1FE454FC4D858582FD13
:103D700066C08FB7F894F501908190FF03C08FBFA4
:103D800080E05EC0F5019081916090838FBFC18219
:103D9000D282E382F4821582168207831087811013
:103DA00006C091E0E114F10419F090E001C091E047
:103DB000F501808190FB81F98B7F808322235CF465
:103DC000CC0FDD1FCC0FDD1FCC0FDD1FC454DC4D2D
:103DD0001A8A1B8A2EC0FE01EE0FFF1FEE0FFF1F77
:103DE000EE0FFF1FE454FC4D8585807C803CA9F4D8
:103DF000CE01880F991F880F991F880F991F88532C
:103E00009C4DBEDBBC01C70179D2892B31F0F50195
:103E100080818E7F808380E013C0CC0FDD1FCC0FAC
:103E2000DD1FCC0FDD1FC454DC4D1E861F861A8A91
:103E30001B8A892D57DC81E003C080E001C080E04F
:103E4000DF91CF911F910F91FF90EF90DF90CF9076
:103E5000BF90AF909F908F900895FF920F931F9304
:103E6000CF93DF93182FC82FCF70D0E0CE01880FEB
:103E7000991FC12F012E000CDD0BCC27DD0FCC1FAD
:103E8000DD27C80FD91F812FA3DBDC01FE01EE0F58
:103E9000FF1FEE0FFF1FEE0FFF1FE853FC4D02E068
:103EA00005938C9180FF22C08E7F8C931796ED91A5
:103EB000FC9118973097D1F011235CF4CC0FDD1FE3
:103EC000CC0FDD1FCC0FDD1FC454DC4D6A897B890C
:103ED0000AC0CC0FDD1FCC0FDD1FCC0FDD1FC4547B
:103EE000DC4D6E857F85412F81E01995DF91CF9163
:103EF0001F910F91FF900895CF93C82FAEDFEC2F45
:103F0000EF70F0E0EE0FFF1F8C2FCC0F990B88277E
:103F1000990F881F9927E80FF91FEE0FFF1FEE0F6B
:103F2000FF1FEE0FFF1FE454FC4D1586CF9108953F
:103F30000F93E82FEF70F0E0EE0FFF1F282F082EF1
:103F4000000C330B2227330F221F3327E20FF31FFE
:103F5000EE0FFF1FEE0FFF1FEE0FFF1FDF01A45438
:103F6000BC4D1D969C911D9794601D969C93E853A3
:103F7000FC4D01E0069371DF81E00F9108951F92DF
:103F80000F920FB60F9211240BB60F920F932F932F
:103F90003F934F935F936F937F938F939F93AF93D1
:103FA000BF93EF93FF938091CB04882344F480E880
:103FB0008093CA040E9428170E94631286C08091D1
:103FC000CB0482FF20C084E08093CA048091D02378
:103FD00086FF7BC08091CC0481FD77C014DB81110A
:103FE00074C08091BA23813011F448DA6EC08430F5
:103FF00009F06BC0E1EDF3E204E00593E9ECF3E2D4
:1040000004E0059362C08091CB0481FF59C082E037
:104010008093CA048091C82386FF57C08091CC0446
:1040200081FD53C0F0DA811150C08091BA238230F3
:1040300041F484E08093BA23E8ECF3E202E00693D3
:1040400044C0833009F041C0E1EDF3E204E00593A0
:10405000E9ECF3E204E0059338C080E18093CA0400
:1040600081E0FBDE81E8F9DE0E9401171092C304B3
:10407000ECEBF3E2158696E0948783E48587158A56
:10408000948B858B86E793E2808B918BC2D91DC080
:104090008091CB0486FF08C080E48093CA0480E04E
:1040A00099D90E94611211C08091CB0485FF0DC087
:1040B00080E28093CA0481E08DD90E94621205C01B
:1040C0008091CB0484FFE4CFC8CFFF91EF91BF91E3
:1040D000AF919F918F917F916F915F914F913F91A0
:1040E0002F910F910F900BBE0F900FBE0F901F904E
:1040F00018951F920F920FB60F9211240BB60F92C4
:104100000F931F932F933F934F935F936F937F93DF
:104110008F939F93AF93BF93CF93DF93EF93FF93CF
:104120008091CC0481FD03C06EDA8111C1C082E0B0
:104130008093CC048091C5048195880FE8ECF3E26C
:10414000E81BF10920813181285C3342369527959F
:104150003695279536952795822F869520FD02C0A6
:1041600090E001C090E8890FE82FEF70F0E0EE0FCB
:10417000FF1F282F082E000C330B2227330F221F7E
:104180003327E20FF31FDF01AA0FBB1FAA0FBB1FCC
:10419000AA0FBB1FA454BC4D1C969C9195FF88C0D0
:1041A000EE0FFF1FEE0FFF1FEE0FFF1FE853FC4D3A
:1041B00000E20693811177C08091BA23843019F40C
:1041C0006BD927D975C00091CA231091CB23809158
:1041D0000D2490910E24C091B623D091B72398015D
:1041E0002C0F3D1F8217930718F48C010C1B1D0B1D
:1041F00080910B2490910C24A80166E773E28C0F48
:104200009D1FD3D0C00FD11FC093B623D093B72327
:104210000034110569F48091B8239091B9238C0F73
:104220009D1F2091092430910A248217930780F062
:10423000E3E0F4E2C287D3870684F785E02D309768
:1042400029F01995811102C00BD932C017D930C09D
:1042500080910D2490910E24C817D907F9F4E091AC
:104260001124F0911224309711F4FAD821C0199535
:10427000811102C0F5D81CC02091B8233091B92318
:104280008091B6239091B723820F931F8093B82318
:104290009093B9231092B6231092B723E8ECF3E27F
:1042A00002E0069305C0803811F4FED801C01ADA86
:1042B000FF91EF91DF91CF91BF91AF919F918F913E
:1042C0007F916F915F914F913F912F911F910F912E
:1042D0000F900BBE0F900FBE0F901F901895DB0133
:1042E0008F939F9358D0BF91AF91A29F800D911D46
:1042F000A39F900DB29F900D11240895AA1BBB1B84
:1043000051E107C0AA1FBB1FA617B70710F0A61BD5
:10431000B70B881F991F5A95A9F780959095BC01F6
:10432000CD010895A1E21A2EAA1BBB1BFD010DC0F1
:10433000AA1FBB1FEE1FFF1FA217B307E407F50755
:1043400020F0A21BB30BE40BF50B661F771F881F31
:10435000991F1A9469F760957095809590959B01C7
:10436000AC01BD01CF010895EE0FFF1F881F8BBF69
:104370000790F691E02D1994A29FB001B39FC00160
:10438000A39F700D811D1124911DB29F700D811D81
:104390001124911D0895F0DFA59F900DB49F900DFD
:1043A000A49F800D911D11240895FB01DC0102C022
:1043B00001900D9241505040D8F70895F894FFCFE6
:1043C000E31423142213241320142B131C132E1470
:1043D0002413000066201A20000022201E200A203C
:1043E000002009024300020100C03209040000015C
:1043F0000202010005240010010424020205240623
:10440000000105240103010705820340001009048F
:104410000100020A000000070581024000000705B4
:104420000202400000001201000202000040EB0303
:10443000042400010102000100030000000000004C
:1044400000000000000000005833657874004255F9
:0A4450004D534F46540004030904C5
:00000001FF
